:04000000ECEF09F028
:101000000000010E2D6E2750D8B409EF08F00BEF49
:1010100008F01BEF08F02750D96EDA6ADF30E832AB
:10102000E832070B286E070E286419EF08F01BEF53
:1010300008F072EF08F0000E2D6E92EF08F02750C6
:10104000D96EDA6ADF30E832E832070B286E010E1B
:10105000296E282A2EEF08F0D8902936282E2CEF5A
:1010600008F02950FF0A2A6E2750D96EDA6ADF503D
:10107000070B020DF350150FD96EDA6ADECF2BF095
:10108000DDCF2CF02BC0D9FF2CC0DAFF2A50DF16A1
:1010900092EF08F02750D96EDA6ADF30E832E83292
:1010A000070B286E010E296E282A59EF08F0D890F8
:1010B0002936282E57EF08F02750D96EDA6ADF500C
:1010C000070B020DF350150FD96EDA6ADECF2AF046
:1010D000DDCF2BF02AC0D9FF2BC0DAFF2950DF1259
:1010E00092EF08F02750D96EDA6ADFBC7AEF08F089
:1010F0007DEF08F0010E7EEF08F0000E286E296AE1
:101100002950000AD8B487EF08F01BEF08F02850E8
:10111000000AD8B41FEF08F0010AD8B44AEF08F06B
:101120001BEF08F02D501200010E2E6E2750D8B480
:101130009CEF08F09EEF08F0AEEF08F02750D96E54
:10114000DA6ADF30E832E832070B296E070E2964CD
:10115000ACEF08F0AEEF08F005EF09F0000E2E6ED0
:101160001AEF09F02750D96EDA6ADF30E832E83238
:10117000070B296E010E2A6E292AC1EF08F0D890BC
:101180002A36292EBFEF08F02A50FF0A2B6E27506F
:10119000D96EDA6ADF50070B020DF3500B0FD96ED0
:1011A000DA6ADECF2CF0DDCF2DF02CC0D9FF2DC0B8
:1011B000DAFF2B50DF161AEF09F02750D96EDA6AE2
:1011C000DF30E832E832070B296E010E2A6E292A39
:1011D000ECEF08F0D8902A36292EEAEF08F02750D5
:1011E000D96EDA6ADF50070B020DF3500B0FD96E80
:1011F000DA6ADECF2BF0DDCF2CF02BC0D9FF2CC06C
:10120000DAFF2A50DF121AEF09F02850296E2A6AF5
:101210002A50000AD8B40FEF09F0AEEF08F02950B9
:10122000000AD8B4B2EF08F0010AD8B4DDEF08F034
:10123000AEEF08F02E5012001AEC0AF0200E2F6EBE
:10124000070E306E5FEC09F0260E276E010E286E39
:1012500094EC08F03D6E030E346E980EE82EFED727
:10126000342EFCD7260E276E000E286E94EC08F064
:101270003D6E200E2F6E060E306E5FEC09F0250ECF
:10128000276E010E286E94EC08F03D6E030E346E4E
:10129000980EE82EFED7342EFCD7250E276E000EB2
:1012A000286E94EC08F03D6E0D0E346EFC0EE82EA8
:1012B000FED7342EFCD71EEF09F000EF00F02F50C0
:1012C000D8B465EF09F067EF09F06FEF09F0090E88
:1012D00030646DEF09F06FEF09F071EF09F098EFEE
:1012E00009F02FC027F03050010B286E94EC08F065
:1012F000316E2F28276ED8903030010B286E94EC79
:1013000008F0316E2F50020F276E3040E8423F0B3D
:10131000010B286E94EC08F0316E2F50030F276EEE
:101320003038E8461F0B010B286E94EC08F0316E44
:1013300012002F50D8B49FEF09F0A1EF09F0B1EFE0
:1013400009F02F50D96EDA6ADF30E832E832070B45
:10135000306E070E3064AFEF09F0B1EF09F0B5EF72
:1013600009F0000E316EC6EF09F02FC027F001EC36
:1013700008F0316E2FC027F02F50D96EDA6A000EB8
:10138000DFBE010E286E94EC08F0316E3150120071
:101390003250D8A4CEEF09F0D0EF09F0D4EF09F025
:1013A000000E336EEAEF09F032C02FF099EC09F02D
:1013B000336E32282F6E99EC09F0336E3250020FE3
:1013C0002F6E99EC09F0336E3250030F2F6E99ECAB
:1013D00009F0336E335012000E0EF66E140EF76ED7
:1013E000000EF86E00EE01F010EE26F00900F5CFC9
:1013F000EEFFE550E150FAE100EE35F0080EEE6A3E
:10140000E806FDE1000EF86E00011CEF09F0800F08
:10141000810F820F830F840F890F8A0F8B0F8C0F20
:101420008D0F920F930F940F950F960F43020A1290
:101430001A000B03200E326EC8EC09F03D6E260E2A
:101440002F6E99EC09F03D6E250E2F6E99EC09F088
:041450003D6E1200DB
:020000040020DA
:08000000FFFFFFFFFFFFFFFF00
:020000040030CA
:0E000000FF02091EFF8181FF0FC00FE00F40BD
:00000001FF
